{
  "_format": "hh-sol-artifact-1",
  "contractName": "Donator",
  "sourceName": "contracts/Donator.sol",
  "abi": [
    {
      "inputs": [
        {
          "internalType": "address",
          "name": "tokenAddress",
          "type": "address"
        },
        {
          "internalType": "address",
          "name": "usdcAddress",
          "type": "address"
        }
      ],
      "stateMutability": "nonpayable",
      "type": "constructor"
    },
    {
      "anonymous": false,
      "inputs": [
        {
          "indexed": false,
          "internalType": "address",
          "name": "owner",
          "type": "address"
        },
        {
          "indexed": false,
          "internalType": "uint256",
          "name": "balance",
          "type": "uint256"
        }
      ],
      "name": "Distributed",
      "type": "event"
    },
    {
      "anonymous": false,
      "inputs": [
        {
          "indexed": false,
          "internalType": "address",
          "name": "donator",
          "type": "address"
        },
        {
          "indexed": false,
          "internalType": "uint256",
          "name": "amount",
          "type": "uint256"
        },
        {
          "indexed": false,
          "internalType": "uint256",
          "name": "fundId",
          "type": "uint256"
        }
      ],
      "name": "Donated",
      "type": "event"
    },
    {
      "anonymous": false,
      "inputs": [
        {
          "indexed": false,
          "internalType": "address",
          "name": "owner",
          "type": "address"
        },
        {
          "indexed": false,
          "internalType": "uint256",
          "name": "cap",
          "type": "uint256"
        },
        {
          "indexed": false,
          "internalType": "uint256",
          "name": "id",
          "type": "uint256"
        }
      ],
      "name": "FundCreated",
      "type": "event"
    },
    {
      "anonymous": false,
      "inputs": [
        {
          "indexed": false,
          "internalType": "address",
          "name": "project",
          "type": "address"
        },
        {
          "indexed": false,
          "internalType": "uint256",
          "name": "fee",
          "type": "uint256"
        }
      ],
      "name": "FundingFee",
      "type": "event"
    },
    {
      "anonymous": false,
      "inputs": [
        {
          "indexed": false,
          "internalType": "address",
          "name": "owner",
          "type": "address"
        },
        {
          "indexed": false,
          "internalType": "uint256",
          "name": "cap",
          "type": "uint256"
        },
        {
          "indexed": false,
          "internalType": "uint256",
          "name": "fundId",
          "type": "uint256"
        }
      ],
      "name": "MicroClosed",
      "type": "event"
    },
    {
      "anonymous": false,
      "inputs": [
        {
          "indexed": false,
          "internalType": "address",
          "name": "owner",
          "type": "address"
        },
        {
          "indexed": false,
          "internalType": "uint256",
          "name": "amount",
          "type": "uint256"
        },
        {
          "indexed": false,
          "internalType": "uint256",
          "name": "fundId",
          "type": "uint256"
        }
      ],
      "name": "MicroDonated",
      "type": "event"
    },
    {
      "anonymous": false,
      "inputs": [
        {
          "indexed": false,
          "internalType": "address",
          "name": "owner",
          "type": "address"
        },
        {
          "indexed": false,
          "internalType": "uint256",
          "name": "cap",
          "type": "uint256"
        },
        {
          "indexed": false,
          "internalType": "uint256",
          "name": "fundId",
          "type": "uint256"
        }
      ],
      "name": "MicroFundCreated",
      "type": "event"
    },
    {
      "anonymous": false,
      "inputs": [
        {
          "indexed": true,
          "internalType": "address",
          "name": "previousOwner",
          "type": "address"
        },
        {
          "indexed": true,
          "internalType": "address",
          "name": "newOwner",
          "type": "address"
        }
      ],
      "name": "OwnershipTransferred",
      "type": "event"
    },
    {
      "anonymous": false,
      "inputs": [
        {
          "indexed": false,
          "internalType": "address",
          "name": "microOwner",
          "type": "address"
        },
        {
          "indexed": false,
          "internalType": "uint256",
          "name": "balance",
          "type": "uint256"
        },
        {
          "indexed": false,
          "internalType": "address",
          "name": "fundOwner",
          "type": "address"
        }
      ],
      "name": "Returned",
      "type": "event"
    },
    {
      "inputs": [
        {
          "internalType": "uint256",
          "name": "_index",
          "type": "uint256"
        },
        {
          "internalType": "uint256",
          "name": "_amount",
          "type": "uint256"
        }
      ],
      "name": "calcInvolvedMicros",
      "outputs": [
        {
          "internalType": "uint256",
          "name": "",
          "type": "uint256"
        }
      ],
      "stateMutability": "view",
      "type": "function"
    },
    {
      "inputs": [
        {
          "internalType": "uint256",
          "name": "_index",
          "type": "uint256"
        },
        {
          "internalType": "uint256",
          "name": "_amount",
          "type": "uint256"
        }
      ],
      "name": "calcOutcome",
      "outputs": [
        {
          "internalType": "uint256",
          "name": "",
          "type": "uint256"
        }
      ],
      "stateMutability": "view",
      "type": "function"
    },
    {
      "inputs": [
        {
          "internalType": "uint256",
          "name": "_id",
          "type": "uint256"
        }
      ],
      "name": "cancelMicrofund",
      "outputs": [],
      "stateMutability": "nonpayable",
      "type": "function"
    },
    {
      "inputs": [
        {
          "internalType": "uint256",
          "name": "_amount",
          "type": "uint256"
        },
        {
          "internalType": "uint256",
          "name": "_currency",
          "type": "uint256"
        }
      ],
      "name": "createFund",
      "outputs": [],
      "stateMutability": "nonpayable",
      "type": "function"
    },
    {
      "inputs": [
        {
          "internalType": "uint256",
          "name": "_amountM",
          "type": "uint256"
        },
        {
          "internalType": "uint256",
          "name": "_amountD",
          "type": "uint256"
        },
        {
          "internalType": "uint256",
          "name": "_id",
          "type": "uint256"
        }
      ],
      "name": "createMicroFund",
      "outputs": [],
      "stateMutability": "nonpayable",
      "type": "function"
    },
    {
      "inputs": [],
      "name": "distributeAll",
      "outputs": [],
      "stateMutability": "nonpayable",
      "type": "function"
    },
    {
      "inputs": [
        {
          "internalType": "uint256",
          "name": "_id",
          "type": "uint256"
        }
      ],
      "name": "distributeEye",
      "outputs": [],
      "stateMutability": "nonpayable",
      "type": "function"
    },
    {
      "inputs": [
        {
          "internalType": "uint256",
          "name": "_id",
          "type": "uint256"
        }
      ],
      "name": "distributeStable",
      "outputs": [],
      "stateMutability": "nonpayable",
      "type": "function"
    },
    {
      "inputs": [
        {
          "internalType": "uint256",
          "name": "_amount",
          "type": "uint256"
        },
        {
          "internalType": "uint256",
          "name": "_id",
          "type": "uint256"
        }
      ],
      "name": "donate",
      "outputs": [],
      "stateMutability": "nonpayable",
      "type": "function"
    },
    {
      "inputs": [],
      "name": "feeAddress",
      "outputs": [
        {
          "internalType": "address",
          "name": "",
          "type": "address"
        }
      ],
      "stateMutability": "view",
      "type": "function"
    },
    {
      "inputs": [
        {
          "internalType": "uint256",
          "name": "",
          "type": "uint256"
        }
      ],
      "name": "funds",
      "outputs": [
        {
          "internalType": "uint256",
          "name": "id",
          "type": "uint256"
        },
        {
          "internalType": "address",
          "name": "owner",
          "type": "address"
        },
        {
          "internalType": "uint256",
          "name": "max",
          "type": "uint256"
        },
        {
          "internalType": "uint256",
          "name": "balance",
          "type": "uint256"
        },
        {
          "internalType": "uint256",
          "name": "state",
          "type": "uint256"
        },
        {
          "internalType": "uint256",
          "name": "currency",
          "type": "uint256"
        }
      ],
      "stateMutability": "view",
      "type": "function"
    },
    {
      "inputs": [
        {
          "internalType": "uint256",
          "name": "_index",
          "type": "uint256"
        }
      ],
      "name": "getConnectedMicroFunds",
      "outputs": [
        {
          "internalType": "uint256",
          "name": "",
          "type": "uint256"
        }
      ],
      "stateMutability": "view",
      "type": "function"
    },
    {
      "inputs": [
        {
          "internalType": "address",
          "name": "_address",
          "type": "address"
        }
      ],
      "name": "getDonationHistory",
      "outputs": [
        {
          "internalType": "uint256[]",
          "name": "",
          "type": "uint256[]"
        }
      ],
      "stateMutability": "view",
      "type": "function"
    },
    {
      "inputs": [
        {
          "internalType": "uint256",
          "name": "_index",
          "type": "uint256"
        }
      ],
      "name": "getFundInfo",
      "outputs": [
        {
          "internalType": "uint256",
          "name": "state",
          "type": "uint256"
        },
        {
          "internalType": "uint256",
          "name": "max",
          "type": "uint256"
        },
        {
          "internalType": "uint256",
          "name": "balance",
          "type": "uint256"
        }
      ],
      "stateMutability": "view",
      "type": "function"
    },
    {
      "inputs": [
        {
          "internalType": "uint256",
          "name": "_index",
          "type": "uint256"
        }
      ],
      "name": "getMicroFundInfo",
      "outputs": [
        {
          "internalType": "uint256",
          "name": "state",
          "type": "uint256"
        },
        {
          "internalType": "uint256",
          "name": "max",
          "type": "uint256"
        },
        {
          "internalType": "uint256",
          "name": "balance",
          "type": "uint256"
        }
      ],
      "stateMutability": "view",
      "type": "function"
    },
    {
      "inputs": [
        {
          "internalType": "uint256",
          "name": "",
          "type": "uint256"
        }
      ],
      "name": "microFunds",
      "outputs": [
        {
          "internalType": "uint256",
          "name": "microId",
          "type": "uint256"
        },
        {
          "internalType": "address",
          "name": "owner",
          "type": "address"
        },
        {
          "internalType": "uint256",
          "name": "cap",
          "type": "uint256"
        },
        {
          "internalType": "uint256",
          "name": "microBalance",
          "type": "uint256"
        },
        {
          "internalType": "uint256",
          "name": "fundId",
          "type": "uint256"
        },
        {
          "internalType": "uint256",
          "name": "state",
          "type": "uint256"
        }
      ],
      "stateMutability": "view",
      "type": "function"
    },
    {
      "inputs": [],
      "name": "owner",
      "outputs": [
        {
          "internalType": "address",
          "name": "",
          "type": "address"
        }
      ],
      "stateMutability": "view",
      "type": "function"
    },
    {
      "inputs": [],
      "name": "renounceOwnership",
      "outputs": [],
      "stateMutability": "nonpayable",
      "type": "function"
    },
    {
      "inputs": [],
      "name": "token",
      "outputs": [
        {
          "internalType": "contract IERC20",
          "name": "",
          "type": "address"
        }
      ],
      "stateMutability": "view",
      "type": "function"
    },
    {
      "inputs": [
        {
          "internalType": "address",
          "name": "newOwner",
          "type": "address"
        }
      ],
      "name": "transferOwnership",
      "outputs": [],
      "stateMutability": "nonpayable",
      "type": "function"
    },
    {
      "inputs": [],
      "name": "usdc",
      "outputs": [
        {
          "internalType": "contract IERC20",
          "name": "",
          "type": "address"
        }
      ],
      "stateMutability": "view",
      "type": "function"
    }
  ],
  "bytecode": "0x608060405273c21223249ca28397b4b6541dffaecc539bff0c59600460006101000a81548173ffffffffffffffffffffffffffffffffffffffff021916908373ffffffffffffffffffffffffffffffffffffffff1602179055503480156200006657600080fd5b50604051620040373803806200403783398181016040528101906200008c919062000273565b620000ac620000a06200013d60201b60201c565b6200014560201b60201c565b6001808190555081600260006101000a81548173ffffffffffffffffffffffffffffffffffffffff021916908373ffffffffffffffffffffffffffffffffffffffff16021790555080600360006101000a81548173ffffffffffffffffffffffffffffffffffffffff021916908373ffffffffffffffffffffffffffffffffffffffff1602179055505050620002ba565b600033905090565b60008060009054906101000a900473ffffffffffffffffffffffffffffffffffffffff169050816000806101000a81548173ffffffffffffffffffffffffffffffffffffffff021916908373ffffffffffffffffffffffffffffffffffffffff1602179055508173ffffffffffffffffffffffffffffffffffffffff168173ffffffffffffffffffffffffffffffffffffffff167f8be0079c531659141344cd1fd0a4f28419497f9722a3daafe3b4186f6b6457e060405160405180910390a35050565b600080fd5b600073ffffffffffffffffffffffffffffffffffffffff82169050919050565b60006200023b826200020e565b9050919050565b6200024d816200022e565b81146200025957600080fd5b50565b6000815190506200026d8162000242565b92915050565b600080604083850312156200028d576200028c62000209565b5b60006200029d858286016200025c565b9250506020620002b0858286016200025c565b9150509250929050565b613d6d80620002ca6000396000f3fe608060405234801561001057600080fd5b50600436106101375760003560e01c80638da5cb5b116100b8578063be7aec531161007c578063be7aec531461035c578063bfd9fc4d1461038c578063d00b4821146103a8578063ee81ce7d146103c4578063f2fde38b146103e0578063fc0c546a146103fc57610137565b80638da5cb5b1461027c578063a4f10f0e1461029a578063a59fe388146102ca578063b318c837146102fa578063b7fa10561461032a57610137565b806341275358116100ff57806341275358146101f9578063436596c414610217578063715018a6146102215780637b8e88951461022b57806380c64be71461026057610137565b80630cdd53f61461013c57806313f1dc201461015857806316055fa8146101745780633e413bee146101a95780633ece1042146101c7575b600080fd5b610156600480360381019061015191906131c3565b61041a565b005b610172600480360381019061016d91906131c3565b6106e3565b005b61018e60048036038101906101899190613203565b6108ca565b6040516101a096959493929190613280565b60405180910390f35b6101b1610936565b6040516101be9190613340565b60405180910390f35b6101e160048036038101906101dc9190613203565b61095c565b6040516101f09392919061335b565b60405180910390f35b6102016109a3565b60405161020e9190613392565b60405180910390f35b61021f6109c9565b005b6102296109cb565b005b61024560048036038101906102409190613203565b6109df565b60405161025796959493929190613280565b60405180910390f35b61027a60048036038101906102759190613203565b610a4b565b005b610284611116565b6040516102919190613392565b60405180910390f35b6102b460048036038101906102af9190613203565b61113f565b6040516102c191906133ad565b60405180910390f35b6102e460048036038101906102df91906133f4565b6111af565b6040516102f191906134df565b60405180910390f35b610314600480360381019061030f91906131c3565b6111b6565b60405161032191906133ad565b60405180910390f35b610344600480360381019061033f9190613203565b6112c7565b6040516103539392919061335b565b60405180910390f35b610376600480360381019061037191906131c3565b61130e565b60405161038391906133ad565b60405180910390f35b6103a660048036038101906103a19190613203565b611411565b005b6103c260048036038101906103bd9190613501565b611d5c565b005b6103de60048036038101906103d99190613203565b6120b3565b005b6103fa60048036038101906103f591906133f4565b612ba4565b005b610404612c28565b6040516104119190613340565b60405180910390f35b600073ffffffffffffffffffffffffffffffffffffffff163373ffffffffffffffffffffffffffffffffffffffff16141561048a576040517f08c379a0000000000000000000000000000000000000000000000000000000008152600401610481906135b1565b60405180910390fd5b600082116104cd576040517f08c379a00000000000000000000000000000000000000000000000000000000081526004016104c49061361d565b60405180910390fd5b6001600582815481106104e3576104e261363d565b5b90600052602060002090600602016004015414610535576040517f08c379a000000000000000000000000000000000000000000000000000000000815260040161052c906136b8565b60405180910390fd5b600061054182846111b6565b9050600582815481106105575761055661363d565b5b9060005260206000209060060201600201548111156105ab576040517f08c379a00000000000000000000000000000000000000000000000000000000081526004016105a290613724565b60405180910390fd5b600260009054906101000a900473ffffffffffffffffffffffffffffffffffffffff1673ffffffffffffffffffffffffffffffffffffffff166323b872dd3330866040518463ffffffff1660e01b815260040161060a93929190613744565b602060405180830381600087803b15801561062457600080fd5b505af1158015610638573d6000803e3d6000fd5b505050506040513d601f19601f8201168201806040525081019061065c91906137b3565b5082600583815481106106725761067161363d565b5b90600052602060002090600602016003016000828254610692919061380f565b925050819055506106a38284612c4e565b7f4928895ba6723e8e27b15f32e4c3054a1b6c7f8c03f133558d6fa42b3928d14c3384846040516106d693929190613865565b60405180910390a1505050565b600073ffffffffffffffffffffffffffffffffffffffff163373ffffffffffffffffffffffffffffffffffffffff161415610753576040517f08c379a000000000000000000000000000000000000000000000000000000000815260040161074a906135b1565b60405180910390fd5b60008211610796576040517f08c379a000000000000000000000000000000000000000000000000000000000815260040161078d9061361d565b60405180910390fd5b60056040518060c0016040528060058054905081526020013373ffffffffffffffffffffffffffffffffffffffff16815260200184815260200160008152602001600181526020018381525090806001815401808255809150506001900390600052602060002090600602016000909190919091506000820151816000015560208201518160010160006101000a81548173ffffffffffffffffffffffffffffffffffffffff021916908373ffffffffffffffffffffffffffffffffffffffff16021790555060408201518160020155606082015181600301556080820151816004015560a0820151816005015550507ff18ce1b70b1a4044491b54196c83d95e67aae09483ce0d2e1c2a8189faca764433836005805490506040516108be93929190613865565b60405180910390a15050565b600681815481106108da57600080fd5b90600052602060002090600602016000915090508060000154908060010160009054906101000a900473ffffffffffffffffffffffffffffffffffffffff16908060020154908060030154908060040154908060050154905086565b600360009054906101000a900473ffffffffffffffffffffffffffffffffffffffff1681565b600080600080600585815481106109765761097561363d565b5b90600052602060002090600602019050806004015481600201548260030154935093509350509193909250565b600460009054906101000a900473ffffffffffffffffffffffffffffffffffffffff1681565b565b6109d3612f76565b6109dd6000612ff4565b565b600581815481106109ef57600080fd5b90600052602060002090600602016000915090508060000154908060010160009054906101000a900473ffffffffffffffffffffffffffffffffffffffff16908060020154908060030154908060040154908060050154905086565b610a53612f76565b60026001541415610a99576040517f08c379a0000000000000000000000000000000000000000000000000000000008152600401610a90906138e8565b60405180910390fd5b6002600181905550600160058281548110610ab757610ab661363d565b5b90600052602060002090600602016004015414610b09576040517f08c379a0000000000000000000000000000000000000000000000000000000008152600401610b00906136b8565b60405180910390fd5b60058181548110610b1d57610b1c61363d565b5b906000526020600020906006020160030154600260009054906101000a900473ffffffffffffffffffffffffffffffffffffffff1673ffffffffffffffffffffffffffffffffffffffff166370a08231306040518263ffffffff1660e01b8152600401610b8a9190613392565b60206040518083038186803b158015610ba257600080fd5b505afa158015610bb6573d6000803e3d6000fd5b505050506040513d601f19601f82011682018060405250810190610bda919061391d565b1015610c1b576040517f08c379a0000000000000000000000000000000000000000000000000000000008152600401610c12906139bc565b60405180910390fd5b60005b6006805490508110156110e0578160068281548110610c4057610c3f61363d565b5b906000526020600020906006020160040154148015610c845750600160068281548110610c7057610c6f61363d565b5b906000526020600020906006020160050154145b156110cd5760068181548110610c9d57610c9c61363d565b5b90600052602060002090600602016003015460068281548110610cc357610cc261363d565b5b90600052602060002090600602016002015411156110a157600260009054906101000a900473ffffffffffffffffffffffffffffffffffffffff1673ffffffffffffffffffffffffffffffffffffffff1663095ea7b33060068581548110610d2e57610d2d61363d565b5b9060005260206000209060060201600201546040518363ffffffff1660e01b8152600401610d5d9291906139dc565b602060405180830381600087803b158015610d7757600080fd5b505af1158015610d8b573d6000803e3d6000fd5b505050506040513d601f19601f82011682018060405250810190610daf91906137b3565b50600260009054906101000a900473ffffffffffffffffffffffffffffffffffffffff1673ffffffffffffffffffffffffffffffffffffffff166323b872dd3060068581548110610e0357610e0261363d565b5b906000526020600020906006020160010160009054906101000a900473ffffffffffffffffffffffffffffffffffffffff1660068681548110610e4957610e4861363d565b5b9060005260206000209060060201600201546040518463ffffffff1660e01b8152600401610e7993929190613744565b602060405180830381600087803b158015610e9357600080fd5b505af1158015610ea7573d6000803e3d6000fd5b505050506040513d601f19601f82011682018060405250810190610ecb91906137b3565b50610fb66040518060400160405280601581526020017f436f6e7472616374207374696c6c206861732025730000000000000000000000815250600260009054906101000a900473ffffffffffffffffffffffffffffffffffffffff1673ffffffffffffffffffffffffffffffffffffffff166370a08231306040518263ffffffff1660e01b8152600401610f609190613392565b60206040518083038186803b158015610f7857600080fd5b505afa158015610f8c573d6000803e3d6000fd5b505050506040513d601f19601f82011682018060405250810190610fb0919061391d565b836130b8565b7f98c105e3bc1ca4c7a99cdea9cd2e2c7a0fbf623404262d3dfd0a152545bd25ad60068281548110610feb57610fea61363d565b5b906000526020600020906006020160010160009054906101000a900473ffffffffffffffffffffffffffffffffffffffff16600684815481106110315761103061363d565b5b906000526020600020906006020160020154600585815481106110575761105661363d565b5b906000526020600020906006020160010160009054906101000a900473ffffffffffffffffffffffffffffffffffffffff1660405161109893929190613a05565b60405180910390a15b6002600682815481106110b7576110b661363d565b5b9060005260206000209060060201600501819055505b80806110d890613a3c565b915050610c1e565b506002600582815481106110f7576110f661363d565b5b9060005260206000209060060201600401819055506001808190555050565b60008060009054906101000a900473ffffffffffffffffffffffffffffffffffffffff16905090565b6000806000905060005b6006805490508110156111a557836006828154811061116b5761116a61363d565b5b906000526020600020906006020160040154141561119257818061118e90613a3c565b9250505b808061119d90613a3c565b915050611149565b5080915050919050565b6060919050565b6000806000905082816111c9919061380f565b905060005b6006805490508110156112bc5784600682815481106111f0576111ef61363d565b5b90600052602060002090600602016004015414801561123457506001600682815481106112205761121f61363d565b5b906000526020600020906006020160050154145b8015611295575083600682815481106112505761124f61363d565b5b906000526020600020906006020160030154600683815481106112765761127561363d565b5b9060005260206000209060060201600201546112929190613a85565b10155b156112a95783826112a6919061380f565b91505b80806112b490613a3c565b9150506111ce565b508091505092915050565b600080600080600685815481106112e1576112e061363d565b5b90600052602060002090600602019050806005015481600301548260020154935093509350509193909250565b6000806000905060005b60068054905081101561140657846006828154811061133a5761133961363d565b5b90600052602060002090600602016004015414801561137e575060016006828154811061136a5761136961363d565b5b906000526020600020906006020160050154145b80156113df5750836006828154811061139a5761139961363d565b5b906000526020600020906006020160030154600683815481106113c0576113bf61363d565b5b9060005260206000209060060201600201546113dc9190613a85565b10155b156113f35781806113ef90613a3c565b9250505b80806113fe90613a3c565b915050611318565b508091505092915050565b611419612f76565b6002600154141561145f576040517f08c379a0000000000000000000000000000000000000000000000000000000008152600401611456906138e8565b60405180910390fd5b600260018190555060016005828154811061147d5761147c61363d565b5b906000526020600020906006020160040154146114cf576040517f08c379a00000000000000000000000000000000000000000000000000000000081526004016114c6906136b8565b60405180910390fd5b600581815481106114e3576114e261363d565b5b906000526020600020906006020160030154600260009054906101000a900473ffffffffffffffffffffffffffffffffffffffff1673ffffffffffffffffffffffffffffffffffffffff166370a08231306040518263ffffffff1660e01b81526004016115509190613392565b60206040518083038186803b15801561156857600080fd5b505afa15801561157c573d6000803e3d6000fd5b505050506040513d601f19601f820116820180604052508101906115a0919061391d565b10156115e1576040517f08c379a00000000000000000000000000000000000000000000000000000000081526004016115d8906139bc565b60405180910390fd5b600260009054906101000a900473ffffffffffffffffffffffffffffffffffffffff1673ffffffffffffffffffffffffffffffffffffffff1663095ea7b330600584815481106116345761163361363d565b5b9060005260206000209060060201600301546040518363ffffffff1660e01b81526004016116639291906139dc565b602060405180830381600087803b15801561167d57600080fd5b505af1158015611691573d6000803e3d6000fd5b505050506040513d601f19601f820116820180604052508101906116b591906137b3565b50600260009054906101000a900473ffffffffffffffffffffffffffffffffffffffff1673ffffffffffffffffffffffffffffffffffffffff166323b872dd30600584815481106117095761170861363d565b5b906000526020600020906006020160010160009054906101000a900473ffffffffffffffffffffffffffffffffffffffff166005858154811061174f5761174e61363d565b5b9060005260206000209060060201600301546040518463ffffffff1660e01b815260040161177f93929190613744565b602060405180830381600087803b15801561179957600080fd5b505af11580156117ad573d6000803e3d6000fd5b505050506040513d601f19601f820116820180604052508101906117d191906137b3565b506002600582815481106117e8576117e761363d565b5b90600052602060002090600602016004018190555060005b600680549050811015611cae5781600682815481106118225761182161363d565b5b90600052602060002090600602016004015414801561186657506001600682815481106118525761185161363d565b5b906000526020600020906006020160050154145b15611c9b576006818154811061187f5761187e61363d565b5b906000526020600020906006020160030154600682815481106118a5576118a461363d565b5b9060005260206000209060060201600201541115611c6f576000600682815481106118d3576118d261363d565b5b906000526020600020906006020160030154600683815481106118f9576118f861363d565b5b9060005260206000209060060201600201546119159190613a85565b9050600260009054906101000a900473ffffffffffffffffffffffffffffffffffffffff1673ffffffffffffffffffffffffffffffffffffffff1663095ea7b330836040518363ffffffff1660e01b81526004016119749291906139dc565b602060405180830381600087803b15801561198e57600080fd5b505af11580156119a2573d6000803e3d6000fd5b505050506040513d601f19601f820116820180604052508101906119c691906137b3565b50600260009054906101000a900473ffffffffffffffffffffffffffffffffffffffff1673ffffffffffffffffffffffffffffffffffffffff166323b872dd3060068681548110611a1a57611a1961363d565b5b906000526020600020906006020160010160009054906101000a900473ffffffffffffffffffffffffffffffffffffffff16846040518463ffffffff1660e01b8152600401611a6b93929190613744565b602060405180830381600087803b158015611a8557600080fd5b505af1158015611a99573d6000803e3d6000fd5b505050506040513d601f19601f82011682018060405250810190611abd91906137b3565b50611ba86040518060400160405280601581526020017f436f6e7472616374207374696c6c206861732025730000000000000000000000815250600260009054906101000a900473ffffffffffffffffffffffffffffffffffffffff1673ffffffffffffffffffffffffffffffffffffffff166370a08231306040518263ffffffff1660e01b8152600401611b529190613392565b60206040518083038186803b158015611b6a57600080fd5b505afa158015611b7e573d6000803e3d6000fd5b505050506040513d601f19601f82011682018060405250810190611ba2919061391d565b846130b8565b7f98c105e3bc1ca4c7a99cdea9cd2e2c7a0fbf623404262d3dfd0a152545bd25ad60068381548110611bdd57611bdc61363d565b5b906000526020600020906006020160010160009054906101000a900473ffffffffffffffffffffffffffffffffffffffff168260058681548110611c2457611c2361363d565b5b906000526020600020906006020160010160009054906101000a900473ffffffffffffffffffffffffffffffffffffffff16604051611c6593929190613a05565b60405180910390a1505b600260068281548110611c8557611c8461363d565b5b9060005260206000209060060201600501819055505b8080611ca690613a3c565b915050611800565b507fb649c98f58055c520df0dcb5709eff2e931217ff2fb1e21376130d31bbb1c0af60058281548110611ce457611ce361363d565b5b906000526020600020906006020160010160009054906101000a900473ffffffffffffffffffffffffffffffffffffffff1660058381548110611d2a57611d2961363d565b5b906000526020600020906006020160030154604051611d4a9291906139dc565b60405180910390a16001808190555050565b600073ffffffffffffffffffffffffffffffffffffffff163373ffffffffffffffffffffffffffffffffffffffff161415611dcc576040517f08c379a0000000000000000000000000000000000000000000000000000000008152600401611dc3906135b1565b60405180910390fd5b6000831015611e10576040517f08c379a0000000000000000000000000000000000000000000000000000000008152600401611e079061361d565b60405180910390fd5b6000821015611e54576040517f08c379a0000000000000000000000000000000000000000000000000000000008152600401611e4b9061361d565b60405180910390fd5b600160058281548110611e6a57611e6961363d565b5b90600052602060002090600602016004015414611ebc576040517f08c379a0000000000000000000000000000000000000000000000000000000008152600401611eb3906136b8565b60405180910390fd5b600260009054906101000a900473ffffffffffffffffffffffffffffffffffffffff1673ffffffffffffffffffffffffffffffffffffffff166323b872dd33308686611f08919061380f565b6040518463ffffffff1660e01b8152600401611f2693929190613744565b602060405180830381600087803b158015611f4057600080fd5b505af1158015611f54573d6000803e3d6000fd5b505050506040513d601f19601f82011682018060405250810190611f7891906137b3565b50611f838183612c4e565b60066040518060c0016040528060068054905081526020013373ffffffffffffffffffffffffffffffffffffffff16815260200185815260200160008152602001838152602001600181525090806001815401808255809150506001900390600052602060002090600602016000909190919091506000820151816000015560208201518160010160006101000a81548173ffffffffffffffffffffffffffffffffffffffff021916908373ffffffffffffffffffffffffffffffffffffffff16021790555060408201518160020155606082015181600301556080820151816004015560a0820151816005015550507fd511a4abd7017566dd0a87ede6cee64db3be74266c66309a474a7986f6ef45213384836040516120a693929190613865565b60405180910390a1505050565b6120bb612f76565b60026001541415612101576040517f08c379a00000000000000000000000000000000000000000000000000000000081526004016120f8906138e8565b60405180910390fd5b600260018190555060016005828154811061211f5761211e61363d565b5b90600052602060002090600602016004015414612171576040517f08c379a0000000000000000000000000000000000000000000000000000000008152600401612168906136b8565b60405180910390fd5b600581815481106121855761218461363d565b5b906000526020600020906006020160030154600360009054906101000a900473ffffffffffffffffffffffffffffffffffffffff1673ffffffffffffffffffffffffffffffffffffffff166370a08231306040518263ffffffff1660e01b81526004016121f29190613392565b60206040518083038186803b15801561220a57600080fd5b505afa15801561221e573d6000803e3d6000fd5b505050506040513d601f19601f82011682018060405250810190612242919061391d565b1015612283576040517f08c379a000000000000000000000000000000000000000000000000000000000815260040161227a906139bc565b60405180910390fd5b600360009054906101000a900473ffffffffffffffffffffffffffffffffffffffff1673ffffffffffffffffffffffffffffffffffffffff1663095ea7b330600584815481106122d6576122d561363d565b5b9060005260206000209060060201600301546040518363ffffffff1660e01b81526004016123059291906139dc565b602060405180830381600087803b15801561231f57600080fd5b505af1158015612333573d6000803e3d6000fd5b505050506040513d601f19601f8201168201806040525081019061235791906137b3565b50600060646001600584815481106123725761237161363d565b5b90600052602060002090600602016003015461238e9190613ab9565b6123989190613b42565b9050600081600584815481106123b1576123b061363d565b5b9060005260206000209060060201600301546123cd9190613a85565b9050600360009054906101000a900473ffffffffffffffffffffffffffffffffffffffff1673ffffffffffffffffffffffffffffffffffffffff166323b872dd30600460009054906101000a900473ffffffffffffffffffffffffffffffffffffffff16856040518463ffffffff1660e01b815260040161245093929190613744565b602060405180830381600087803b15801561246a57600080fd5b505af115801561247e573d6000803e3d6000fd5b505050506040513d601f19601f820116820180604052508101906124a291906137b3565b507fbd7be181889421a250b191cccf6016a1956adc1f1f75af42434f320ad4fd4e01600584815481106124d8576124d761363d565b5b906000526020600020906006020160010160009054906101000a900473ffffffffffffffffffffffffffffffffffffffff16836040516125199291906139dc565b60405180910390a1600360009054906101000a900473ffffffffffffffffffffffffffffffffffffffff1673ffffffffffffffffffffffffffffffffffffffff166323b872dd30600586815481106125745761257361363d565b5b906000526020600020906006020160010160009054906101000a900473ffffffffffffffffffffffffffffffffffffffff16846040518463ffffffff1660e01b81526004016125c593929190613744565b602060405180830381600087803b1580156125df57600080fd5b505af11580156125f3573d6000803e3d6000fd5b505050506040513d601f19601f8201168201806040525081019061261791906137b3565b5060026005848154811061262e5761262d61363d565b5b90600052602060002090600602016004018190555060005b600680549050811015612af45783600682815481106126685761266761363d565b5b9060005260206000209060060201600401541480156126ac57506001600682815481106126985761269761363d565b5b906000526020600020906006020160050154145b15612ae157600681815481106126c5576126c461363d565b5b906000526020600020906006020160030154600682815481106126eb576126ea61363d565b5b9060005260206000209060060201600201541115612ab5576000600682815481106127195761271861363d565b5b9060005260206000209060060201600301546006838154811061273f5761273e61363d565b5b90600052602060002090600602016002015461275b9190613a85565b9050600360009054906101000a900473ffffffffffffffffffffffffffffffffffffffff1673ffffffffffffffffffffffffffffffffffffffff1663095ea7b330836040518363ffffffff1660e01b81526004016127ba9291906139dc565b602060405180830381600087803b1580156127d457600080fd5b505af11580156127e8573d6000803e3d6000fd5b505050506040513d601f19601f8201168201806040525081019061280c91906137b3565b50600360009054906101000a900473ffffffffffffffffffffffffffffffffffffffff1673ffffffffffffffffffffffffffffffffffffffff166323b872dd30600688815481106128605761285f61363d565b5b906000526020600020906006020160010160009054906101000a900473ffffffffffffffffffffffffffffffffffffffff16846040518463ffffffff1660e01b81526004016128b193929190613744565b602060405180830381600087803b1580156128cb57600080fd5b505af11580156128df573d6000803e3d6000fd5b505050506040513d601f19601f8201168201806040525081019061290391906137b3565b506129ee6040518060400160405280601581526020017f436f6e7472616374207374696c6c206861732025730000000000000000000000815250600360009054906101000a900473ffffffffffffffffffffffffffffffffffffffff1673ffffffffffffffffffffffffffffffffffffffff166370a08231306040518263ffffffff1660e01b81526004016129989190613392565b60206040518083038186803b1580156129b057600080fd5b505afa1580156129c4573d6000803e3d6000fd5b505050506040513d601f19601f820116820180604052508101906129e8919061391d565b846130b8565b7f98c105e3bc1ca4c7a99cdea9cd2e2c7a0fbf623404262d3dfd0a152545bd25ad60068381548110612a2357612a2261363d565b5b906000526020600020906006020160010160009054906101000a900473ffffffffffffffffffffffffffffffffffffffff168260058881548110612a6a57612a6961363d565b5b906000526020600020906006020160010160009054906101000a900473ffffffffffffffffffffffffffffffffffffffff16604051612aab93929190613a05565b60405180910390a1505b600260068281548110612acb57612aca61363d565b5b9060005260206000209060060201600501819055505b8080612aec90613a3c565b915050612646565b507fb649c98f58055c520df0dcb5709eff2e931217ff2fb1e21376130d31bbb1c0af60058481548110612b2a57612b2961363d565b5b906000526020600020906006020160010160009054906101000a900473ffffffffffffffffffffffffffffffffffffffff1660058581548110612b7057612b6f61363d565b5b906000526020600020906006020160030154604051612b909291906139dc565b60405180910390a150506001808190555050565b612bac612f76565b600073ffffffffffffffffffffffffffffffffffffffff168173ffffffffffffffffffffffffffffffffffffffff161415612c1c576040517f08c379a0000000000000000000000000000000000000000000000000000000008152600401612c1390613be5565b60405180910390fd5b612c2581612ff4565b50565b600260009054906101000a900473ffffffffffffffffffffffffffffffffffffffff1681565b60005b600680549050811015612f71578160068281548110612c7357612c7261363d565b5b90600052602060002090600602016003015460068381548110612c9957612c9861363d565b5b906000526020600020906006020160020154612cb59190613a85565b10158015612ce757508260068281548110612cd357612cd261363d565b5b906000526020600020906006020160040154145b8015612d185750600160068281548110612d0457612d0361363d565b5b906000526020600020906006020160050154145b15612f5e578160068281548110612d3257612d3161363d565b5b90600052602060002090600602016003016000828254612d52919061380f565b925050819055508160058481548110612d6e57612d6d61363d565b5b90600052602060002090600602016003016000828254612d8e919061380f565b9250508190555060068181548110612da957612da861363d565b5b90600052602060002090600602016003015460068281548110612dcf57612dce61363d565b5b9060005260206000209060060201600201541415612edd57600260068281548110612dfd57612dfc61363d565b5b9060005260206000209060060201600501819055507f344f3c440bc0a199d8ebf3e014b04b0be7f494a3e35bc4c4b162dbf9edb2452160068281548110612e4757612e4661363d565b5b906000526020600020906006020160010160009054906101000a900473ffffffffffffffffffffffffffffffffffffffff1660068381548110612e8d57612e8c61363d565b5b90600052602060002090600602016002015460068481548110612eb357612eb261363d565b5b906000526020600020906006020160040154604051612ed493929190613865565b60405180910390a15b7f222fc7850537c15d19443dc50af34147c805a5a1e830644485d70fcf31f3fb5160068281548110612f1257612f1161363d565b5b906000526020600020906006020160010160009054906101000a900473ffffffffffffffffffffffffffffffffffffffff168385604051612f5593929190613865565b60405180910390a15b8080612f6990613a3c565b915050612c51565b505050565b612f7e613157565b73ffffffffffffffffffffffffffffffffffffffff16612f9c611116565b73ffffffffffffffffffffffffffffffffffffffff1614612ff2576040517f08c379a0000000000000000000000000000000000000000000000000000000008152600401612fe990613c51565b60405180910390fd5b565b60008060009054906101000a900473ffffffffffffffffffffffffffffffffffffffff169050816000806101000a81548173ffffffffffffffffffffffffffffffffffffffff021916908373ffffffffffffffffffffffffffffffffffffffff1602179055508173ffffffffffffffffffffffffffffffffffffffff168173ffffffffffffffffffffffffffffffffffffffff167f8be0079c531659141344cd1fd0a4f28419497f9722a3daafe3b4186f6b6457e060405160405180910390a35050565b6131528383836040516024016130d093929190613cf9565b6040516020818303038152906040527fca47c4eb000000000000000000000000000000000000000000000000000000007bffffffffffffffffffffffffffffffffffffffffffffffffffffffff19166020820180517bffffffffffffffffffffffffffffffffffffffffffffffffffffffff838183161783525050505061315f565b505050565b600033905090565b60008151905060006a636f6e736f6c652e6c6f679050602083016000808483855afa5050505050565b600080fd5b6000819050919050565b6131a08161318d565b81146131ab57600080fd5b50565b6000813590506131bd81613197565b92915050565b600080604083850312156131da576131d9613188565b5b60006131e8858286016131ae565b92505060206131f9858286016131ae565b9150509250929050565b60006020828403121561321957613218613188565b5b6000613227848285016131ae565b91505092915050565b6132398161318d565b82525050565b600073ffffffffffffffffffffffffffffffffffffffff82169050919050565b600061326a8261323f565b9050919050565b61327a8161325f565b82525050565b600060c0820190506132956000830189613230565b6132a26020830188613271565b6132af6040830187613230565b6132bc6060830186613230565b6132c96080830185613230565b6132d660a0830184613230565b979650505050505050565b6000819050919050565b60006133066133016132fc8461323f565b6132e1565b61323f565b9050919050565b6000613318826132eb565b9050919050565b600061332a8261330d565b9050919050565b61333a8161331f565b82525050565b60006020820190506133556000830184613331565b92915050565b60006060820190506133706000830186613230565b61337d6020830185613230565b61338a6040830184613230565b949350505050565b60006020820190506133a76000830184613271565b92915050565b60006020820190506133c26000830184613230565b92915050565b6133d18161325f565b81146133dc57600080fd5b50565b6000813590506133ee816133c8565b92915050565b60006020828403121561340a57613409613188565b5b6000613418848285016133df565b91505092915050565b600081519050919050565b600082825260208201905092915050565b6000819050602082019050919050565b6134568161318d565b82525050565b6000613468838361344d565b60208301905092915050565b6000602082019050919050565b600061348c82613421565b613496818561342c565b93506134a18361343d565b8060005b838110156134d25781516134b9888261345c565b97506134c483613474565b9250506001810190506134a5565b5085935050505092915050565b600060208201905081810360008301526134f98184613481565b905092915050565b60008060006060848603121561351a57613519613188565b5b6000613528868287016131ae565b9350506020613539868287016131ae565b925050604061354a868287016131ae565b9150509250925092565b600082825260208201905092915050565b7f496e76616c696420616464726573730000000000000000000000000000000000600082015250565b600061359b600f83613554565b91506135a682613565565b602082019050919050565b600060208201905081810360008301526135ca8161358e565b9050919050565b7f496e76616c696420616d6f756e74000000000000000000000000000000000000600082015250565b6000613607600e83613554565b9150613612826135d1565b602082019050919050565b60006020820190508181036000830152613636816135fa565b9050919050565b7f4e487b7100000000000000000000000000000000000000000000000000000000600052603260045260246000fd5b7f46756e64206973206e6f74206163746976650000000000000000000000000000600082015250565b60006136a2601283613554565b91506136ad8261366c565b602082019050919050565b600060208201905081810360008301526136d181613695565b9050919050565b7f46756e64696e6720616d6f756e74206578636565647320636170616369747900600082015250565b600061370e601f83613554565b9150613719826136d8565b602082019050919050565b6000602082019050818103600083015261373d81613701565b9050919050565b60006060820190506137596000830186613271565b6137666020830185613271565b6137736040830184613230565b949350505050565b60008115159050919050565b6137908161377b565b811461379b57600080fd5b50565b6000815190506137ad81613787565b92915050565b6000602082840312156137c9576137c8613188565b5b60006137d78482850161379e565b91505092915050565b7f4e487b7100000000000000000000000000000000000000000000000000000000600052601160045260246000fd5b600061381a8261318d565b91506138258361318d565b9250827fffffffffffffffffffffffffffffffffffffffffffffffffffffffffffffffff0382111561385a576138596137e0565b5b828201905092915050565b600060608201905061387a6000830186613271565b6138876020830185613230565b6138946040830184613230565b949350505050565b7f5265656e7472616e637947756172643a207265656e7472616e742063616c6c00600082015250565b60006138d2601f83613554565b91506138dd8261389c565b602082019050919050565b60006020820190508181036000830152613901816138c5565b9050919050565b60008151905061391781613197565b92915050565b60006020828403121561393357613932613188565b5b600061394184828501613908565b91505092915050565b7f4e6f7420656e6f75676820746f6b656e7320696e2074686520636f6e7472616360008201527f7400000000000000000000000000000000000000000000000000000000000000602082015250565b60006139a6602183613554565b91506139b18261394a565b604082019050919050565b600060208201905081810360008301526139d581613999565b9050919050565b60006040820190506139f16000830185613271565b6139fe6020830184613230565b9392505050565b6000606082019050613a1a6000830186613271565b613a276020830185613230565b613a346040830184613271565b949350505050565b6000613a478261318d565b91507fffffffffffffffffffffffffffffffffffffffffffffffffffffffffffffffff821415613a7a57613a796137e0565b5b600182019050919050565b6000613a908261318d565b9150613a9b8361318d565b925082821015613aae57613aad6137e0565b5b828203905092915050565b6000613ac48261318d565b9150613acf8361318d565b9250817fffffffffffffffffffffffffffffffffffffffffffffffffffffffffffffffff0483118215151615613b0857613b076137e0565b5b828202905092915050565b7f4e487b7100000000000000000000000000000000000000000000000000000000600052601260045260246000fd5b6000613b4d8261318d565b9150613b588361318d565b925082613b6857613b67613b13565b5b828204905092915050565b7f4f776e61626c653a206e6577206f776e657220697320746865207a65726f206160008201527f6464726573730000000000000000000000000000000000000000000000000000602082015250565b6000613bcf602683613554565b9150613bda82613b73565b604082019050919050565b60006020820190508181036000830152613bfe81613bc2565b9050919050565b7f4f776e61626c653a2063616c6c6572206973206e6f7420746865206f776e6572600082015250565b6000613c3b602083613554565b9150613c4682613c05565b602082019050919050565b60006020820190508181036000830152613c6a81613c2e565b9050919050565b600081519050919050565b60005b83811015613c9a578082015181840152602081019050613c7f565b83811115613ca9576000848401525b50505050565b6000601f19601f8301169050919050565b6000613ccb82613c71565b613cd58185613554565b9350613ce5818560208601613c7c565b613cee81613caf565b840191505092915050565b60006060820190508181036000830152613d138186613cc0565b9050613d226020830185613230565b613d2f6040830184613230565b94935050505056fea26469706673582212207682f624af15226ca2ca461ab7f1e0dc172d7d9f3b63ebf0c1008daba2989d2364736f6c63430008090033",
  "linkReferences": {},
  "deployedLinkReferences": {}
}